:100000000C943E001895000018950000189500000B
:10001000189500001895000018950000189500002C
:10002000189500001895000018950000189500001C
:10003000189500000C949A0018950000189500007F
:1000400018950000189500001895000018950000FC
:1000500018950000189500001895000018950000EC
:1000600018950000189500001895000018950000DC
:100070000C94F300189500000C94AE018FEF8DBF27
:10008000C8EDE0EC4E2E80E18EBFD0E1F0E15F2EB6
:10009000A89584B7082E877F84BF88E1992780932D
:1000A000600090936000EEEFFFE0A0E0B1E08827F1
:1000B0008D933197E9F78FE58093C40080E08093BA
:1000C000C50088E18093C100662487E880937A00A8
:1000D00080E480937C0080E0809380008BE08093BC
:1000E000810080918100887F8093810080E090E092
:1000F00090938500809384008FE398E39093890028
:100100008093880070916F00726070936F008BE035
:100110008093810080E0809301017FD0ECE9F3E0DF
:100120000E94B0010E94B70144275527992778946F
:100130000C9498002F932FB72F933F93CF93DF9377
:100140001F920F92939570917A00706470937A0069
:1001500000907A0004FCFCCF20917800420F0090C0
:100160005F0000FC5F5F20917900520F903100909A
:100170005F0001FC0CD0742F752F78940F901F90A6
:10018000DF91CF913F912F912FBF2F91189511D0D3
:1001900015D02AEF429F412D529F512D400D0090C6
:1001A0005F0000FC5F5F752F742F50E040E090E02F
:1001B000089546954695469546950895569500901E
:1001C0005F0000FC4395569500905F0000FC43954E
:1001D000569500905F0000FC4395569500905F0097
:1001E00000FC439508952F932FB72F933F93CF9300
:1001F000DF931F920F929F935F934F93F89434D0A5
:1002000078944F915F919F910F901F90DF91CF91C4
:100210003F912F912FBF2F91189500E00093C500BB
:100220000093CD0007E00093C40007E00093CC00EA
:1002300008E10093C1000093C90006E00093C200EA
:100240000093CA005C98549A7091C10070687093D2
:10025000C1007091C90070687093C9007091C900A5
:1002600070647093C90008953091CE00209101010F
:10027000213049F0313C00905F0001FE089521E0FB
:10028000209301010895323A00905F0001FE089525
:1002900020E0209301015C9A22EC2093CE0025E51A
:1002A0002093CE0012D031D021E44ED02093CE0046
:1002B0002DE34AD02093CE0021E82093CE0080E0A9
:1002C00090E0A0E0B9E040D00895745600905F003F
:1002D00000FC08C091E0745600905F0000FC02C072
:1002E00092E074567C5903D0765F08D008957A5016
:1002F00000905F0000FC0895A395F9DF7150009015
:100300005F0000FC0895B395F9DF70FD0FD071FD1B
:1003100011D030E02B2F12D0A30F30E02A2F0ED0B7
:10032000930F30E0292F0AD0830F08959E5FAB5FB3
:10033000BA5F08959B5FAF5FBE5F08952A5000903B
:100340005F0000FE71E008950090C80005FEFCCF3C
:1003500008950090C00005FEFCCF08955C981895A4
:100360000E94CA01802D11F005D0FACF08958DE0CA
:1003700001D08AE00090C00005FEFCCF8093C6004B
:1003800008953197F1F70895689462F80895E89414
:1003900062F80895C89531960020089554757461E7
:0203A0006A00F1
:00000001FF
