:100000000C943E001895000018950000189500000B
:10001000189500001895000018950000189500002C
:10002000189500001895000018950000189500001C
:10003000189500000C947D0218950000189500009A
:1000400018950000189500001895000018950000FC
:1000500018950000189500001895000018950000EC
:1000600018950000189500001895000018950000DC
:100070000C940C03189500000C949F038FEF8DBF18
:10008000C8EDE0EC4E2E80E18EBFD0E1F0E15F2EB6
:10009000A89584B7082E877F84BF88E1992780932D
:1000A000600090936000EEEFFFE0A0E0B1E08827F1
:1000B0008D933197E9F787E08093C40080E08093C7
:1000C000C50088E18093C100662487E880937A00A8
:1000D00080E480937C0080E0809380008BE08093BC
:1000E000810080918100887F8093810080E090E092
:1000F00090938500809384008FE398E39093890028
:100100008093880070916F00726070936F008BE035
:1001100080938100E0E0F0E0A0E1B1E091E00E9496
:10012000EB06E4EEFDE00E943406E0E1F1E0D08071
:10013000EE24FF2400270E94FE040E94A105EDE0AA
:10014000F0E0A4E0B1E00E94CB06E1E0F0E0A0E145
:10015000B1E091E00E94EB06E0E1F1E0D080EE2416
:10016000FF2400270E94FE040E943005E4E0F1E035
:100170000E94DA040E94E205EDE0F0E0A4E0B1E0C4
:100180000E94CB06E2E0F0E0A0E1B1E091E00E9445
:10019000EB06E4EEFDE00E943406E0E1F1E0D08001
:1001A000EE24FF2400270E94FE040E94A105EDE03A
:1001B000F0E0A8E0B1E00E94CB06E3E0F0E0A0E1CF
:1001C000B1E091E00E94EB06E0E1F1E0D080EE24A6
:1001D000FF2400270E94FE040E943005E8E0F1E0C1
:1001E0000E94DA040E94E205EDE0F0E0A8E0B1E050
:1001F0000E94CB06E4E0F0E0A0E1B1E091E00E94D3
:10020000EB06A0E1B1E00C9111272227332744E649
:1002100050E060E070E00E947904A0E0B1E00D934E
:100220001D932D933D93E5E0F0E0A0E1B1E091E076
:100230000E94EB06A0E0B1E00D911D912D913C9143
:10024000A0E1B1E04C915527662777270E945F0611
:10025000A0E0B1E00D931D932D933D93E4E0F1E018
:100260000E94DF04E8E0F1E00E94DA040E94D30576
:10027000EDE0F0E0ACE0B1E00E94CB0600E010E081
:1002800020E030E0A1E1B1E00D931D932D933C936C
:10029000A5E1B1E0E8EEFDE00E94570680E0809322
:1002A00023015BD27894A13000905F0001FC02D062
:1002B0000C945301E5E1F1E00E94DA04E8E0F1E09A
:1002C0000E94DF040E943D0618F011F00C946A01B0
:1002D0000C94780181E08093190180E080931A01E9
:1002E00080E080931B0180E080931C010C945502F8
:1002F00080E080931901E4E0F1E00E94DF04E5E191
:10030000F1E00E94DA040E94D305EDE0F0E0A5E1FF
:10031000B1E00E94CB06ECEEFDE00E943406E5E180
:10032000F1E00E94DA040E94A105EDE0F0E0A5E111
:10033000B1E00E94CB06ECE0F1E00E94DF04E5E1D1
:10034000F1E00E94DA040E944B05EDE0F0E0A5E147
:10035000B1E00E94CB06ECEEFDE00E943406E5E140
:10036000F1E00E94DA040E944B05EDE0F0E00E940B
:100370009C04ADE1B1E0DD92EC9280911D0180938F
:100380001901A9E1B1E00D91112748EE53E00E9457
:100390006F04ADE1B1E00D931C93EDE1F1E0D1907C
:1003A000E080FF2400270E94FE040E943005E5E162
:1003B000F1E00E94DA040E94D305EDE0F0E0A5E14F
:1003C000B1E00E94CB06E4EEFDE00E943406E5E1D8
:1003D000F1E00E94DA040E944B05EDE0F0E00E949B
:1003E0009C04ADE1B1E0DD92EC9280911D0180931F
:1003F0001A01AAE1B1E00D91112744E650E00E94F4
:100400006F04ADE1B1E00D931C93EDE1F1E0D1900B
:10041000E080FF2400270E94FE040E943005E5E1F1
:10042000F1E00E94DA040E94D305EDE0F0E0A5E1DE
:10043000B1E00E94CB06E0EFFDE00E943406E5E16A
:10044000F1E00E94DA040E944B05EDE0F0E00E942A
:100450009C04ABE1B1E0DC92ABE1B1E00D9111277E
:100460004AE050E00E946F04ADE1B1E00D931C93AF
:10047000EDE1F1E0D190E080FF2400270E94FE042E
:100480000E943005E5E1F1E00E94DA040E94D30504
:10049000EDE0F0E0A5E1B1E00E94CB06E5E1F1E09E
:1004A0000E949C04ACE1B1E0DC92A0E0A5E1B1E0E7
:1004B000E8EEFDE00E945706EEE1F0E0ACE1B1E0CD
:1004C00091E07BE70E94DA06EFE1F0E0ABE1B1E01A
:1004D00091E07BE70E94DA06E0E2F0E0AAE1B1E019
:1004E00091E07BE70E94DA06E1E2F0E0A9E1B1E009
:1004F00091E07BE70E94DA0608952F932FB72F93A0
:100500003F93CF93DF931F920F92F894939570913E
:100510007A00706470937A0000907A0004FCFCCF3B
:1005200020917800B20F00905F0000FC439520916D
:10053000790023704093100120931001420F4093E3
:100540001001E4EFFDE00E94FE03A8EAB0E1E0E163
:10055000F1E00E9481060E94F6030E94050490319A
:1005600000905F0001FC0AD078940F901F90DF91FB
:10057000CF913F912F912FBF2F911895B0931001DC
:1005800040931001A1E1B1E00D911D912D913C919D
:1005900040E051E060E070E00E947904A1E1B1E048
:1005A0000D931D932D933D93A1E1B1E00D911D910C
:1005B0002D913C91A0E1B1E04C915527662777271A
:1005C0000E945F06A1E1B1E00D931D932D933D9331
:1005D000A1E1B1E00D911D912D913C9140E150E0E0
:1005E00060E070E00E941204A1E1B1E04D935D93E0
:1005F0006D937D9300E010E020E030E0A1E1B1E0F8
:100600000D931D932D933C9380E080931001A1E006
:1006100090E0B0E040E008952F932FB72F933F93E1
:10062000CF93DF931F920F929F93AF93F89411D0C3
:100630007894AF919F910F901F90DF91CF913F9150
:100640002F912FBF2F9118950090C80005FEFCCF69
:1006500008953091CE0020912301213049F0313CA2
:1006600000905F0001FE089521E02093230108958A
:10067000323A00905F0001FE089520E020932301AC
:100680005C9A22EC2093CE0025E52093CE0021E455
:10069000DBDF2093CE002DE3D7DF2093CE00E1E215
:1006A000F0E0A9E1B1E091E00E94EB06CDDF3091EE
:1006B0001901305D303300905F0001FC30E230936F
:1006C000CE00E0E2F0E0AAE1B1E091E00E94EB06AA
:1006D000BBDF20911A01205D303200905F0001FCE9
:1006E00036D02093CE00EFE1F0E0ABE1B1E091E055
:1006F0000E94EB06A9DF30911B01305D2032009093
:100700005F0001FC1ED05C9A3093CE00EEE1F0E079
:10071000ACE1B1E091E00E94EB0696DF20911C0174
:10072000205D2093CE0090DF2DE62093CE008CDF5D
:100730002093CE0021E82093CE0086DF08955C98B8
:100740001895303300905F0001FC30E208952033AB
:1007500000905F0001FC20E2089500E00093C500D6
:100760000093CD0007E00093C40007E00093CC00A5
:1007700008E10093C1000093C90006E00093C200A5
:100780000093CA005C98549A7091C100706870938D
:10079000C1007091C90070687093C9007091C90060
:1007A00070647093C900089505D00E946F0400FC26
:1007B0000CD008950024E89457FF02C009D0689433
:1007C00000F80BD010F80124089502D009D0089544
:1007D000509540954F5F5F4F0895E89417FF089537
:1007E000009510950F5F1F4F68940895A8EAB0E137
:1007F0008D91882311F00CD0FBCF08950E94300614
:10080000802D11F005D0FACF08958DE001D08AE057
:100810000090C00005FEFCCF8093C600089500FC48
:1008200005D0089530D005D001F8F9CF37D03FD0AA
:100830000895842F952FA62FB72FE894452B462B8C
:10084000472B11F468940895402F512F622F732F76
:100850000027112722273327F0E2440F551F661F78
:10086000771F001F111F221F331F081B190B2A0B94
:100870003B0B416028F4080F191F2A1F3B1F4E7FB6
:10088000FA9559F708950024E89477FF02C006D03E
:10089000689400F809D010F80124089512D04F5F31
:1008A0005F4F6F4F7F4F0895E89437FF089500958D
:1008B0001095209530950F5F1F4F2F4F3F4F689435
:1008C0000895409550956095709508953197F1F78A
:1008D0000895689462F80895E89462F808950F9274
:1008E000B801469F8001479F100D569F100D0F9035
:1008F00008950F921F922F92C801D901489F80013D
:100900004A9F90014B9F202C499F100D211D321DA5
:100910005A9F202C589F100D211D321D599F200DCC
:10092000311D689F200D311D699F300D789F300D5E
:100930002F901F900F9008953DD0992711278F2D4C
:10094000880F80E8F82A802F881F08F41FEF41F0F5
:100950008F57082F07FD04C0003240F08FEF01C011
:100960008827982FD82EE82EF82E09C08FE1801BFB
:10097000082FF694E794D79497950A95D1F7112309
:1009800051F09095D094E094F09481E0980F8827EE
:10099000D81EE81EF81E0F2DFE2CED2CD92E089522
:1009A000D094E094F09491E0D90E9927E91EF91EB5
:1009B00010950895D190E190F190019108952191C1
:1009C0003191419151910895102F90E8FF0C001F33
:1009D0000927990FF7941078652F90E8440F551F59
:1009E0005927990F4795607800380895FF0C90E8D3
:1009F0009027110F9795F794092F0895102FBD2C6C
:100A0000DE2CEF2CF02E11234AF4B094D094E09415
:100A1000F0949FEFB91AD90AE90AF90A0EE1FF200A
:100A200039F4FE2CED2CDB2CBB240850C2F767C038
:100A300032F00A95BB0CDD1CEE1CFF1CF9CF0E94A6
:100A40002205D4CFB7FE089590E8B91611F4D0FE70
:100A500008959FEFD91AE90AF90A09F40395089550
:100A6000502F2D2D3E2D4F2D612F08952DEC3CEC58
:100A70004CEC5DE366270FC09DDFF2DFDD24EE2442
:100A800090E8F92E0FE307C09ADF05C0222733272D
:100A900040E251E46627552351F1002381F194DFB0
:100AA00071F11627005850580894050B18F407FDEB
:100AB00003C025C007FD23C0469537952795F694BA
:100AC000E794D79422D0FF202AF0DD0CEE1CFF1C07
:100AD000015073F09D2D969548F0DD203AF4EE20FC
:100AE0002AF491E0D90E9927E91EF91E7FCF07C09D
:100AF0009FE7092FF92A9FEFD92EE92E0895DD24CB
:100B0000EE24FF240027112708959F929924AA24F8
:100B1000BB2488E1D216E306F40628F0D21AE30AD1
:100B2000F40A089401C08894991CAA1CBB1CDD0C13
:100B3000EE1CFF1C8A9571F7D92CEA2CFB2C9F9098
:100B4000089542DFE1F25038D1F21627005850588C
:100B50000894051F12F418F4CBCF08F0D0CF0BD0B7
:100B6000FF202AF0BB0CDD1CEE1CFF1C3FCF0F5FEB
:100B70000BF4BECF3BCF9F929924AA24BB24992784
:100B800088E1990CAA1CBB1CDD1CEE1CFF1C30F478
:100B9000920EA31EB41ED91EE91EF91E8A9589F76E
:100BA0009F9008950CDF10DF503829F090E86927F6
:100BB0000CC00AF045D01ACF5FE322273327442721
:100BC00001C0FDDE01DF5038B1F3003899F3902FFA
:100BD000951B8BF312F434D0FACF983118F02227FA
:100BE00033274427983028F0232F342F4427985058
:100BF000F9CF992329F04695379527959A95D9F7F6
:100C0000912F962742F014D0B0F6F794E794D7943A
:100C10000F5F8BF66DCF10D051F008F4C1DEFF20CE
:100C200052F2DD0CEE1CFF1C0150CBF761CF67CFF9
:100C3000D20EE31EF41E0895D21AE30AF40A0895B0
:100C4000DF92EF92FF920F931F93D22EE32EF42E9A
:100C5000052F162F6F915F914F913F912F9108951E
:100C6000C895319600200895FBDF202DF9DF302D47
:100C7000F7DF402DF5DF502D089507FB00680EF4D7
:100C80000F7757FB50680EF45F7707FD02C057FFE0
:100C900005C0D216E306F406050708952D153E0596
:100CA0004F055007089591E005C092E003C094E01D
:100CB00001C098E0D5DF0D929A95E1F70895040FF1
:100CC000151F261F371F0895000F111F221F331FE6
:100CD000089500951095209530950F5F1F4F2F4F69
:100CE0003F4F0895019110810EC001911191219102
:100CF00030810BC00191108117FF05C03FEF2FEF2E
:100D000004C0008111272227332737FF03C0E1DF0A
:100D10008DE28D93CF93DF93CF92DF92EF92AA244F
:100D2000BB24CC24DD24EE2440E2CAE0DD2755E0DC
:100D300093E38881890F87FD9F7083FD907F891BD6
:100D400089935A95A9F7C0DFAA1CBB1CCC1CDD1CDB
:100D5000EE1C4A9551F7E894EFE0FF2782910ED000
:100D6000EB30E0F71EF068948A2D0CD088278D9325
:100D7000EF90DF90CF90DF91CF910895982F8295DB
:100D800001D0892F8F70805D26F0803309F408959B
:100D900068948D93089594E081918D939A95E1F7ED
:100DA0000895F999FECFE1BDF2BD3196089591E025
:100DB00001C092E07B3751F47FB7F894F2DF8D9158
:100DC00080BDFA9AF99A9A95C9F77FBF7727089557
:100DD00091E001C092E0E5DFF89A80B58D939A9595
:100DE000D1F708950000C8420000000000007A44D6
:0C0DF0000000204153756D613A200000A6
:00000001FF
