:100000000C943E001895000018950000189500000B
:10001000189500001895000018950000189500002C
:10002000189500001895000018950000189500001C
:10003000189500000C949400189500001895000085
:1000400018950000189500001895000018950000FC
:1000500018950000189500001895000018950000EC
:1000600018950000189500001895000018950000DC
:100070000C94D900189500000C9481018FEF8DBF6E
:10008000C8EDE0EC4E2E80E18EBFD0E1F0E15F2EB6
:10009000A89584B7082E877F84BF88E1992780932D
:1000A000600090936000EEEFFFE0A0E0B1E08827F1
:1000B0008D933197E9F78FE58093C40080E08093BA
:1000C000C50088E18093C100662487E880937A00A8
:1000D00080E480937C0080E0809380008BE08093BC
:1000E000810080918100887F8093810080E090E092
:1000F00090938500809384008FE398E39093890028
:100100008093880070916F00726070936F008BE035
:100110008093810080E080930501F5D06627552704
:10012000112778940C9492008F938FB78F937F93BD
:10013000CF93DF931F920F92139570917A007064A2
:1001400070937A0000907A0004FCFCCF80917800D4
:10015000680F00905F0000FC5F5F80917900580F8E
:10016000103100905F0001FC09D00F901F90DF91CB
:10017000CF917F918F918FBF8F91189513D012D00F
:1001800011D010D08AEF689F612D589F512D600DBE
:1001900000905F0000FC5F5F352F462F10E050E0BD
:1001A00060E008956695569500905F0000FC6058E9
:1001B00008958F938FB78F937F93CF93DF931F9281
:1001C0000F921F935F936F93F8940DD078946F9173
:1001D0005F911F910F901F90DF91CF917F918F9131
:1001E0008FBF8F9118957091CE008091050181305D
:1001F00049F0713C00905F0001FE089581E080931A
:1002000005010895723A00905F0001FE089580E0B4
:10021000809305015C9A82EC8093CE0085E5809303
:10022000CE00C0E035D0C093080181E460D0809357
:10023000CE00C0E036D0C09307014F934093000139
:10024000A8EAB0E1E0E0F1E00E94E2010E94AA0128
:100250000E94B2014F918DE34AD08093CE00C091AD
:100260000801C05D44D0C093CE00C0910701C05DBD
:100270003ED0C093CE008DE63AD08093CE008DE67E
:1002800036D08093CE0033D081E88093CE0008959D
:10029000C395445600905F0000FEFACFCA954C59B2
:1002A0000895C3954A5000905F0000FCFACFCA95AC
:1002B000465F0895415000905F0002FC0895C39589
:1002C000F9DF30FD0CD031FD0BD070E00AD070FDAD
:1002D00070E007D070FD70E004D070FD08950895BF
:1002E00008958A5000905F0002FE71E0089500902A
:1002F000C80005FEFCCF08950090C00005FEFCCFAD
:1003000008955C98189580E08093C5008093CD0097
:1003100087E08093C40087E08093CC0088E18093DD
:10032000C1008093C90086E08093C2008093CA0018
:100330005C98549A7091C10070687093C10070917C
:10034000C90070687093C9007091C900706470939F
:10035000C9000895A8EAB0E18D91882311F005D075
:10036000FBCF08958DE001D08AE00090C00005FE2B
:10037000FCCF8093C60008953197F1F708956894F3
:1003800062F80895E89462F80895000F111F221F83
:10039000331F089500951095209530950F5F1F4FDE
:1003A0002F4F3F4F0895019110810EC0019111917F
:1003B000219130810BC00191108117FF05C03FEFE3
:1003C0002FEF04C0008111272227332737FF03C0F6
:1003D000E1DF8DE28D93CF93DF93CF92DF92EF92A7
:1003E000AA24BB24CC24DD24EE2440E2CAE0DD278D
:1003F00055E093E38881890F87FD9F7083FD907F8F
:10040000891B89935A95A9F7C0DFAA1CBB1CCC1C79
:10041000DD1CEE1C4A9551F7E894EFE0FF2782912E
:100420000ED0EB30E0F71EF068948A2D0CD08827B0
:100430008D93EF90DF90CF90DF91CF910895982F1B
:10044000829501D0892F8F70805D26F0803309F46A
:08045000089568948D9308954E
:00000001FF
