:100000000C943E001895000018950000189500000B
:10001000189500001895000018950000189500002C
:10002000189500001895000018950000189500001C
:10003000189500000C949400189500001895000085
:1000400018950000189500001895000018950000FC
:1000500018950000189500001895000018950000EC
:1000600018950000189500001895000018950000DC
:100070000C94E100189500000C9498018FEF8DBF4F
:10008000C8EDE0EC4E2E80E18EBFD0E1F0E15F2EB6
:10009000A89584B7082E877F84BF88E1992780932D
:1000A000600090936000EEEFFFE0A0E0B1E08827F1
:1000B0008D933197E9F78FE58093C40080E08093BA
:1000C000C50088E18093C100662487E880937A00A8
:1000D00080E480937C0080E0809380008BE08093BC
:1000E000810080918100887F8093810080E090E092
:1000F00090938500809384008FE398E39093890028
:100100008093880070916F00726070936F008BE035
:100110008093810080E0809305010CD12227332752
:10012000882778940C9492000F930FB70F931F9326
:10013000CF93DF931F920F929F93AF936F937F9311
:10014000839570917A00706470937A0000907A00C1
:1001500004FCFCCF00917800200F00905F0000FCB1
:100160003F5F00917900300F803100905F0001FC0B
:100170000DD07F916F91AF919F910F901F90DF9164
:10018000CF911F910F910FBF0F91189513D012D0DF
:1001900011D010D00AEF209F212D309F312D200D3E
:1001A00000905F0000FC3F5F532F422F80E030E063
:1001B00020E008952695369500905F0000FC2058B9
:1001C00008950F930FB70F931F93CF93DF931F9251
:1001D0000F928F933F932F93F8940DD078942F9193
:1001E0003F918F910F901F90DF91CF911F910F91B1
:1001F0000FBF0F9118951091CE00009105010130AD
:1002000049F0113C00905F0001FE089501E0009369
:1002100005010895123A00905F0001FE089500E084
:10022000009305015C9A02EC0093CE0005E5009373
:10023000CE0090E0A0E060E070E034D04F934093B7
:100240000001A8EAB0E1E0E0F1E00E94F9010E94BB
:10025000C1010E94C9014F9101E460D00093CE001A
:10026000465F0DE35BD00093CE00905DA05D605DC6
:10027000705D54D09093CE0051D0A093CE004ED05C
:100280006093CE004BD07093CE000DE647D0009324
:10029000CE000DE643D00093CE0040D001E800939D
:1002A000CE000895A395445600905F0002FEFACF59
:1002B000AA954C5908954A5000905F0002FC089599
:1002C0006395F9DF415000905F0002FC089573953B
:1002D000F9DF50FD15D051FD17D010E0072F18D0D1
:1002E00010FD7A50610F10E0062F12D010FD6A50F9
:1002F000A10F10E00A2F0CD010FDAA50910F089505
:10030000AE5F6B5F7A5F0895AB5F6F5F7E5F08954E
:100310000A5000905F0002FE11E008950090C800AE
:1003200005FEFCCF08950090C00005FEFCCF0895A7
:100330005C98189500E00093C5000093CD0007E09D
:100340000093C40007E00093CC0008E10093C100D3
:100350000093C90006E00093C2000093CA005C98B5
:10036000549A7091C10070687093C1007091C90077
:1003700070687093C9007091C90070647093C9006F
:100380000895A8EAB0E18D91882311F005D0FBCF44
:1003900008958DE001D08AE00090C00005FEFCCFFA
:1003A0008093C60008953197F1F70895689462F834
:1003B0000895E89462F80895000F111F221F331F5B
:1003C000089500951095209530950F5F1F4F2F4F82
:1003D0003F4F0895019110810EC00191119121911B
:1003E00030810BC00191108117FF05C03FEF2FEF47
:1003F00004C0008111272227332737FF03C0E1DF24
:100400008DE28D93CF93DF93CF92DF92EF92AA2468
:10041000BB24CC24DD24EE2440E2CAE0DD2755E0F5
:1004200093E38881890F87FD9F7083FD907F891BEF
:1004300089935A95A9F7C0DFAA1CBB1CCC1CDD1CF4
:10044000EE1C4A9551F7E894EFE0FF2782910ED019
:10045000EB30E0F71EF068948A2D0CD088278D933E
:10046000EF90DF90CF90DF91CF910895982F8295F4
:1004700001D0892F8F70805D26F0803309F40895B4
:0604800068948D930895BD
:00000001FF
