:100000000C943E001895000018950000189500000B
:10001000189500001895000018950000189500002C
:10002000189500001895000018950000189500001C
:10003000189500000C948B0018950000189500008E
:1000400018950000189500001895000018950000FC
:1000500018950000189500001895000018950000EC
:1000600018950000189500001895000018950000DC
:100070000C94D000189500000C948F018FEF8DBF69
:10008000C8EDE0EC4E2E80E18EBFD0E1F0E15F2EB6
:10009000A89584B7082E877F84BF88E1992780932D
:1000A000600090936000EEEFFFE0A0E0B1E08827F1
:1000B0008D933197E9F7662487E880937A0080E48E
:1000C00080937C0080E0809380008BE080938100AF
:1000D00080918100887F8093810080E090E0909300
:1000E0008500809384008FE398E390938900809348
:1000F000880070916F00726070936F008BE0809346
:10010000810080E0809305010CD1662755271127D7
:1001100078940C9489008F938FB78F937F93CF93AC
:10012000DF931F920F92139570917A007064709311
:100130007A0000907A0004FCFCCF80917800680F70
:1001400000905F0000FC5F5F80917900580F1031D4
:1001500000905F0001FC09D00F901F90DF91CF91BC
:100160007F918F918FBF8F91189513D012D011D09E
:1001700010D08AEF689F612D589F512D600D00901F
:100180005F0000FC5F5F352F462F10E050E060E01D
:1001900008956695569500905F0000FC605808959C
:1001A0008F938FB78F937F93CF93DF931F920F928D
:1001B0001F935F936F93F8940DD078946F915F9134
:1001C0001F910F901F90DF91CF917F918F918FBFE3
:1001D0008F9118957091CE0080910501813049F082
:1001E000713C00905F0001FE089581E0809305015D
:1001F0000895723A00905F0001FE089580E08093B8
:1002000005015C9A82EC8093CE0085E58093CE0058
:10021000C0E030D0C0930801C0E035D0C0930701E2
:1002200081E473D08093CE00C0E036D0C093060145
:100230008DE36BD08093CE0037D0505D66D0509365
:10024000CE00C05D62D0C093CE00405D5ED04093D2
:10025000CE00605D5AD06093CE008DE656D080937C
:10026000CE008DE652D08093CE004FD081E88093AF
:10027000CE000895C395445600905F0000FEFACF6B
:10028000CA954C590895C3954A5000905F0000FEEE
:10029000FACFCA95465F0895C395415000905F001C
:1002A00000FEFACFCA95089550E0C0E040E060E05B
:1002B00050910901C0910801409107016091060128
:1002C00030FD15D031FD17D070E0862F18D070FDAD
:1002D0006A50470F70E0842F12D070FD4A50C70F4C
:1002E00070E08C2F0CD070FDCA50570F0895CE5F70
:1002F0004B5F6A5F0895CB5F4F5F6E5F08958A50D2
:1003000000905F0000FE71E008950090C80005FEB7
:10031000FCCF08950090C00005FEFCCF08955C98C6
:10032000189580E08093C5008093CD0087E080938E
:10033000C40087E08093CC0088E18093C100809363
:10034000C90086E08093C2008093CA005C98549AEA
:100350007091C10070687093C1007091C90070689D
:100360007093C9007091C90070647093C9000895BA
:100370003197F1F70895689462F80895E89462F867
:020380000895DE
:00000001FF
