:100000000C943E001895000018950000189500000B
:10001000189500001895000018950000189500002C
:10002000189500001895000018950000189500001C
:10003000189500000C94FE0118950000189500001A
:1000400018950000189500001895000018950000FC
:1000500018950000189500001895000018950000EC
:1000600018950000189500001895000018950000DC
:100070000C945902189500000C94DA028FEF8DBF92
:10008000C8EDE0EC4E2E80E18EBFD0E1F0E15F2EB6
:10009000A89584B7082E877F84BF88E1992780932D
:1000A000600090936000EEEFFFE0A0E0B1E08827F1
:1000B0008D933197E9F787E08093C40080E08093C7
:1000C000C50088E18093C100662487E880937A00A8
:1000D00080E480937C0080E0809380008BE08093BC
:1000E000810080918100887F8093810080E090E092
:1000F000909385008093840080E498E39093890036
:100100008093880070916F00726070936F008BE035
:100110008093810085E090E0A0E0B1E08D939C9316
:1001200080E090E0A2E0B1E08D939C9308EC10E0B9
:1001300020E030E0A4E0B1E00D931D932D933C93BB
:1001400000E213E020E030E0A8E0B1E00D931D9361
:100150002D933C93A8E0B1E00D911C91A4E0B1E097
:100160004D915C91041B150BACE0B1E00D931C9319
:10017000ACE0B1E00D911C9144E650E00E942F03E9
:10018000ACE0B1E04D935C93A4E0B1E00D911D9122
:100190002D913C91ACE0B1E04D915C9166277727C1
:1001A0000E946503A4E0B1E04D935D936D937D9350
:1001B000A8E0B1E00D911D912D913C91ACE0B1E032
:1001C0004D915C91662777270E946503A8E0B1E016
:1001D0004D935D936D937D9300E010E020E030E05F
:1001E000AFE0B1E00D931D932D933C9300E010E040
:1001F00020E030E0A3E1B1E00D931D932D933C93FB
:1002000080E080931C01DED17894A13000905F00E3
:1002100001FC02D00C940501A3E1B1E00D911D9108
:100220002D913C91ACE0B1E04D915C916627772730
:100230000E946503A3E1B1E04D935D936D937D93BF
:10024000E4EEF8E00E945103A8EAB0E1E3E1F1E056
:100250000E94EB030E9449030E945803209113015E
:1002600030910801231B00905F0000FEBDC020916B
:10027000130130910401231B00905F0002FCAAC00F
:10028000A3E1B1E00D911D912D913C91A4E0B1E06D
:100290004D915D916D917C910E94D503A3E1B1E0F8
:1002A0000D931D932D933D930091130144E60E94FD
:1002B0006204A7E1B1E00C93A7E1B1E00D91112731
:1002C00044E650E00E94C203AAE1B1E00D931C9302
:1002D000A3E1B1E00D911D912D913C91AAE1B1E016
:1002E0004D915C91662777270E94D503A3E1B1E089
:1002F0000D931D932D933D93009113014AE00E94AD
:100300006204A8E1B1E00C93A8E1B1E00D911127DE
:100310004AE050E00E94C203AAE1B1E00D931C93B1
:10032000A3E1B1E00D911D912D913C91AAE1B1E0C5
:100330004D915C91662777270E94D503A3E1B1E038
:100340000D931D932D933D9380911301809319017B
:10035000A0E000E010E020E030E0A3E1B1E00D9388
:100360001D932D933C93E4EFF8E00E945103A8EA1B
:10037000B0E1E7E1F1E00E94F7030E944903A8EA37
:10038000B0E1E8E1F1E00E94F7030E944903A8EA26
:10039000B0E1E9E1F1E00E94F7030E9449030E9405
:1003A0005803EEE1F0E0A9E1B1E091E07BE70E94C3
:1003B0004A04EFE1F0E0A8E1B1E091E07BE70E94C0
:1003C0004A04E0E2F0E0A7E1B1E091E07BE70E94BF
:1003D0004A04089580E08093170180E0809318011B
:1003E00080E080931901B4CF81E08093170180E011
:1003F0008093180180E080931901AACF2F932FB723
:100400002F933F93CF93DF931F920F92F89493957E
:1004100070917A00706470937A0000907A0004FC06
:10042000FCCFA8E7B0E00D911C9140E150E00E94A4
:100430002F03AAE1B1E04D935C93AFE0B1E00D91E1
:100440001D912D913C91AAE1B1E04D915C916627FF
:1004500077270E94D003AFE0B1E00D931D932D9359
:100460003D93903100905F0001FC0AD078940F908A
:100470001F90DF91CF913F912F912FBF2F91189512
:10048000AFE0B1E00D911D912D913C91A3E1B1E060
:100490000D931D932D933C9300E010E020E030E09D
:1004A000AFE0B1E00D931D932D933C93A1E090E05C
:1004B00008952F932FB72F933F93CF93DF931F92DE
:1004C0000F929F93AF93F89411D07894AF919F912E
:1004D0000F901F90DF91CF913F912F912FBF2F91C0
:1004E00018950090C80005FEFCCF08953091CE000D
:1004F00020911C01213049F0313C00905F0001FE49
:10050000089521E020931C010895323A00905F0085
:1005100001FE089520E020931C015C9A22EC2093B8
:10052000CE00DFDF25E52093CE00DBDF21E4209342
:10053000CE00D7DF2DE32093CE00E0E2F0E0A7E18C
:10054000B1E091E00E945B04CCDF20911701205DB7
:10055000203300905F0001FC20E22093CE00EFE109
:10056000F0E0A8E1B1E091E00E945B04BADF3091D5
:100570001801305D203200905F0001FC1DD03093E7
:10058000CE00EEE1F0E0A9E1B1E091E00E945B0471
:10059000A8DF20911901205D2093CE00A2DF2DE677
:1005A0002093CE009EDF2093CE0021E82093CE0042
:1005B00098DF08955C981895303300905F0001FC37
:1005C00030E2089500E00093C5000093CD0007E0FD
:1005D0000093C40007E00093CC0008E10093C10041
:1005E0000093C90006E00093C2000093CA005C9823
:1005F000549A7091C10070687093C1007091C900E5
:1006000070687093C9007091C90070647093C900DC
:10061000089509D00E94C20300FC10D0089503D0B1
:100620001ED001F8F9CF0024E89457FF02C009D08A
:10063000689400F80BD010F80124089502D009D076
:100640000895509540954F5F5F4F0895E89417FFC8
:100650000895009510950F5F1F4F68940895352FEA
:10066000242FE894452B11F468940895512F402FBE
:100670000027112780E1440F551F001F111F021B87
:10068000130B416018F4020F131F4E7F8A9599F7E0
:100690000895A8EAB0E18D91882311F00CD0FBCF2A
:1006A00008950E94CC03802D11F005D0FACF089553
:1006B0008DE001D08AE00090C00005FEFCCF809361
:1006C000C600089500FC05D0089530D005D001F88B
:1006D000F9CF37D03FD00895842F952FA62FB72F6D
:1006E000E894452B462B472B11F468940895402F2E
:1006F000512F622F732F0027112722273327F0E273
:10070000440F551F661F771F001F111F221F331F25
:10071000081B190B2A0B3B0B416028F4080F191F0B
:100720002A1F3B1F4E7FFA9559F708950024E8943D
:1007300077FF02C006D0689400F809D010F80124B1
:10074000089512D04F5F5F4F6F4F7F4F0895E89429
:1007500037FF089500951095209530950F5F1F4F36
:100760002F4F3F4F68940895409550956095709530
:1007700008953197F1F70895689462F80895E89420
:1007800062F808950F92B801469F8001479F100DAF
:10079000569F100D0F900895C8953196002008952A
:1007A000040F151F261F371F0895041B150B260B5A
:1007B000370B0895000F111F221F331F0895009556
:1007C0001095209530950F5F1F4F2F4F3F4F089585
:1007D000019110810EC001911191219130810BC0C6
:1007E0000191108117FF05C03FEF2FEF04C000817A
:1007F00011272227332737FF03C0E1DF8DE28D93D6
:10080000CF93DF93CF92DF92EF92AA24BB24CC2424
:10081000DD24EE2440E2CAE0DD2755E093E3888141
:10082000890F87FD9F7083FD907F891B89935A955F
:10083000A9F7C0DFAA1CBB1CCC1CDD1CEE1C4A9512
:1008400051F7E894EFE0FF2782910ED0EB30E0F70C
:100850001EF068948A2D0CD088278D93EF90DF903E
:10086000CF90DF91CF910895982F829501D0892F55
:100870008F70805D26F0803309F4089568948D931D
:100880000895F999FECFE1BDF2BD3196089591E04A
:1008900001C092E07B3751F47FB7F894F2DF8D917D
:1008A00080BDFA9AF99A9A95C9F77FBF772708957C
:1008B00091E001C092E0E5DFF89A80B58D939A95BA
:1008C000D1F70895FF93881BF9E0001FFA9511F402
:1008D000FF910895881F841B18F4840F8894F5CF26
:1008E0000894F3CF706F2077617274647A69656CD5
:1008F0003A200000706F206F626C69637A656E69E0
:060900006163683A20006B
:00000001FF
