:100000000C943E001895000018950000189500000B
:10001000189500001895000018950000189500002C
:10002000189500001895000018950000189500001C
:10003000189500000C94DC0018950000189500003D
:1000400018950000189500001895000018950000FC
:1000500018950000189500001895000018950000EC
:1000600018950000189500001895000018950000DC
:100070000C94BE01189500000C9450028FEF8DBFB8
:10008000C8EDE0EC4E2E80E18EBFD0E1F0E15F2EB6
:10009000A89584B7082E877F84BF88E1992780932D
:1000A000600090936000EEEFFFE0A0E0B1E08827F1
:1000B0008D933197E9F7662487E880937A0080E48E
:1000C00080937C0080E0809380008BE080938100AF
:1000D00080918100887F8093810080E090E0909300
:1000E00085008093840080E498E390938900809356
:1000F000880070916F00726070936F008BE0809346
:10010000810085E090E0A0E0B1E08D939C9380E0D9
:1001100090E0A2E0B1E08D939C9388EC90E0A4E0A5
:10012000B1E08D939C9380E293E0A6E0B1E08D93E3
:100130009C93A6E0B1E00D911C91A4E0B1E04D913B
:100140005C91041B150BA8E0B1E00D931C93A8E093
:10015000B1E00D911C9144E650E00E947F02A8E0BE
:10016000B1E04D935C93A4E0B1E00D911C91A8E047
:10017000B1E04D915C910E947F02A4E0B1E04D930B
:100180005C93A6E0B1E00D911C91A8E0B1E04D9127
:100190005C910E947F02A6E0B1E04D935C9380E009
:1001A00090E0ABE0B1E08D939C9380E080931701E9
:1001B00079D178940C94DA002F932FB72F933F9333
:1001C000CF93DF931F920F92F894939570917A00DA
:1001D000706470937A0000907A0004FCFCCFABE06E
:1001E000B1E00D911C91A8E7B0E04D915C91040F36
:1001F000151FABE0B1E00D931C93903151F0789452
:100200000F901F90DF91CF913F912F912FBF2F9192
:100210001895ABE0B1E00D911C9140E150E00E94D7
:100220009F02ABE0B1E04D935C93ABE0B1E00D9188
:100230001C91A8E0B1E04D915C910E949F02ABE05F
:10024000B1E04D935C9380910B0180930A01209162
:100250000A018091040180930A0130910A01231B55
:1002600000905F0002FC7CC080910B0180930A012A
:1002700020910A018091060180930A0130910A01C0
:10028000321B00905F0002FC72C0ABE0B1E00D9148
:100290001C91A4E0B1E04D915C91041B150BABE007
:1002A000B1E00D931C93ABE0B1E00D911C9144E6DD
:1002B00050E00E949F02AFE0B1E04D935C93AFE04D
:1002C000B1E00D911C9144E650E00E94C202A5E10C
:1002D000B1E00D931C93ABE0B1E00D911C91A5E151
:1002E000B1E04D915C91041B150BABE0B1E00D93B7
:1002F0001C93ABE0B1E00D911C914AE050E00E94EC
:100300009F02A1E1B1E04D935C93A1E1B1E00D91B9
:100310001C914AE050E00E94C202A5E1B1E00D93B9
:100320001C93ABE0B1E00D911C91A5E1B1E04D91C2
:100330005C91041B150BABE0B1E00D931C93ABE09B
:10034000B1E08D919C91A3E1B1E08D939C932AD073
:10035000992780E090E0ABE0B1E08D939C93089505
:1003600080E090E0ABE0B1E08D939C939CCF84E67D
:1003700090E0ABE0B1E08D939C9395CF2F932FB796
:100380002F933F93CF93DF931F920F92F89443D014
:1003900078940F901F90DF91CF913F912F912FBFB5
:1003A0002F9118955C9A22EC2093C6002AD025E55F
:1003B0002093C60026D021E42093C60022D02DE34E
:1003C0002093C6001ED020910F01205D2093C6000F
:1003D00018D020911101205D2093C60012D02091E9
:1003E0001301205D2093C6000CD02DE62093C6009B
:1003F00008D02DE62093C60004D021E82093C60043
:1004000008950090C00005FEFCCF08950090C8003C
:1004100005FEFCCF08953091CE00209117012130C8
:1004200049F0313800905F0001FE089521E02093EB
:1004300017010895323A00905F0001FE089520E010
:10044000209317015C9A22EC2093CE00DFDF25E594
:100450002093CE00DBDF21E42093CE00D7DF2DE315
:100460002093CE00D3DF20910F01205D2093CE009A
:10047000CDDF20911101205D2093CE00C7DF2091B8
:100480001301205D2093CE00C1DF2DE62093CE0026
:10049000BDDF2DE62093CE0021E82093CE00089505
:1004A0005C98189500E00093C5000093CD0007E02C
:1004B0000093C40007E00093CC0008E10093C10062
:1004C0000093C90006E00093C2000093CA005C9844
:1004D000549A7091C10070687093C1007091C90006
:1004E00070687093C9007091C90070647093C900FE
:1004F000089509D00E94C20200FC10D0089503D0D4
:100500001ED001F8F9CF0024E89457FF02C009D0AB
:10051000689400F80BD010F80124089502D009D097
:100520000895509540954F5F5F4F0895E89417FFE9
:100530000895009510950F5F1F4F68940895352F0B
:10054000242FE894452B11F468940895512F402FDF
:100550000027112780E1440F551F001F111F021BA8
:10056000130B416018F4020F131F4E7F8A9599F701
:1005700008953197F1F70895689462F80895E89422
:1005800062F808950F92B801469F8001479F100DB1
:08059000569F100D0F90089515
:00000001FF
