:100000000C943E001895000018950000189500000B
:10001000189500001895000018950000189500002C
:10002000189500001895000018950000189500001C
:10003000189500000C949A0018950000189500007F
:1000400018950000189500001895000018950000FC
:1000500018950000189500001895000018950000EC
:1000600018950000189500001895000018950000DC
:100070000C947201189500000C9410028FEF8DBF44
:10008000C8EDE0EC4E2E80E18EBFD0E1F0E15F2EB6
:10009000A89584B7082E877F84BF88E1992780932D
:1000A000600090936000EEEFFFE0A0E0B1E08827F1
:1000B0008D933197E9F7662487E880937A0080E48E
:1000C00080937C0080E0809380008BE080938100AF
:1000D00080918100887F8093810080E090E0909300
:1000E00085008093840080E498E390938900809356
:1000F000880070916F00726070936F008BE0809346
:10010000810085E090E0A0E0B1E08D939C9380E0D9
:1001100090E0A2E0B1E08D939C9380E090E0A4E0B9
:10012000B1E08D939C9380E0809310017BD1789413
:100130000C9498002F932FB72F933F93CF93DF9377
:100140001F920F92F894939570917A007064709357
:100150007A0000907A0004FCFCCFA4E0B1E00D919D
:100160001C91A8E7B0E04D915C91040F151FA4E02D
:10017000B1E00D931C93903151F078940F901F9043
:10018000DF91CF913F912F912FBF2F911895A4E030
:10019000B1E00D911C9140E150E00E945F02A4E0AB
:1001A000B1E04D935C93A4E0B1E00D911C91A0E00F
:1001B000B1E04D915C910E948202A4E0B1E00D9308
:1001C0001C93A4E0B1E00D911C91A2E0B1E04D912F
:1001D0005C91040F151FA4E0B1E00D931C93A4E003
:1001E000B1E00D911C9148EE53E00E945F02A6E041
:1001F000B1E04D935C93A6E0B1E00D911C9148EE07
:1002000053E00E948202AEE0B1E00D931C93A4E0A3
:10021000B1E00D911C91AEE0B1E04D915C91041BF9
:10022000150BA4E0B1E00D931C93A4E0B1E00D9197
:100230001C9144E650E00E945F02A8E0B1E04D93BB
:100240005C93A8E0B1E00D911C9144E650E00E945F
:100250008202AEE0B1E00D931C93A4E0B1E00D91F9
:100260001C91AEE0B1E04D915C91041B150BA4E034
:10027000B1E00D931C93A4E0B1E00D911C914AE014
:1002800050E00E945F02AAE0B1E04D935C93AAE0C7
:10029000B1E00D911C914AE050E00E948202AEE074
:1002A000B1E00D931C93A4E0B1E00D911C91AEE080
:1002B000B1E04D915C91041B150BA4E0B1E00D93EE
:1002C0001C93A4E0B1E08D919C91ACE0B1E08D93E2
:1002D0009C931CD0992780E090E0A4E0B1E08D933E
:1002E0009C9308952F932FB72F933F93CF93DF9332
:1002F0001F920F92F89449D078940F901F90DF913D
:10030000CF913F912F912FBF2F9118955C9A22EC9E
:100310002093C60030D025E52093C6002CD021E4E0
:100320002093C60028D02DE32093C60024D020912E
:100330000601205D2093C6001ED020910801205D9B
:100340002093C60018D020910A01205D2093C6009A
:1003500012D020910C01205D2093C6000CD02DE618
:100360002093C60008D02DE62093C60004D021E8D3
:100370002093C60008950090C00005FEFCCF0895AC
:100380000090C80005FEFCCF08953091CE0020916A
:100390001001213049F0313800905F0001FE0895CE
:1003A00021E0209310010895323A00905F0001FE91
:1003B000089520E0209310015C9A22EC2093CE0057
:1003C000DFDF25E52093CE00DBDF21E42093CE00A4
:1003D000D7DF2DE32093CE00D3DF20910601205DEF
:1003E0002093CE00CDDF20910801205D2093CE0028
:1003F000C7DF20910A01205D2093CE00C1DF20914C
:100400000C01205D2093CE00BBDF2DE62093CE00B3
:10041000B7DF2DE62093CE0021E82093CE0008958B
:100420005C98189500E00093C5000093CD0007E0AC
:100430000093C40007E00093CC0008E10093C100E2
:100440000093C90006E00093C2000093CA005C98C4
:10045000549A7091C10070687093C1007091C90086
:1004600070687093C9007091C90070647093C9007E
:10047000089509D00E94820200FC10D0089503D094
:100480001ED001F8F9CF0024E89457FF02C009D02C
:10049000689400F80BD010F80124089502D009D018
:1004A0000895509540954F5F5F4F0895E89417FF6A
:1004B0000895009510950F5F1F4F68940895352F8C
:1004C000242FE894452B11F468940895512F402F60
:1004D0000027112780E1440F551F001F111F021B29
:1004E000130B416018F4020F131F4E7F8A9599F782
:1004F00008953197F1F70895689462F80895E894A3
:1005000062F808950F92B801469F8001479F100D31
:08051000569F100D0F90089595
:00000001FF
