:100000000C943E001895000018950000189500000B
:10001000189500001895000018950000189500002C
:10002000189500001895000018950000189500001C
:10003000189500000C94E700189500001895000032
:1000400018950000189500001895000018950000FC
:1000500018950000189500001895000018950000EC
:1000600018950000189500001895000018950000DC
:100070000C94E201189500000C9468028FEF8DBF7C
:10008000C8EDE0EC4E2E80E18EBFD0E1F0E15F2EB6
:10009000A89584B7082E877F84BF88E1992780932D
:1000A000600090936000EEEFFFE0A0E0B1E08827F1
:1000B0008D933197E9F78FE58093C40080E08093BA
:1000C000C50088E18093C100662487E880937A00A8
:1000D00080E480937C0080E0809380008BE08093BC
:1000E000810080918100887F8093810080E090E092
:1000F000909385008093840080E498E39093890036
:100100008093880070916F00726070936F008BE035
:100110008093810085E090E0A0E0B1E08D939C9316
:1001200080E090E0A2E0B1E08D939C9388EC90E0B9
:10013000A4E0B1E08D939C9380E293E0A6E0B1E06F
:100140008D939C93A6E0B1E00D911C91A4E0B1E0E9
:100150004D915C91041B150BA8E0B1E00D931C932D
:10016000A8E0B1E00D911C9144E650E00E94970296
:10017000A8E0B1E04D935C93A4E0B1E00D911C9137
:10018000A8E0B1E04D915C910E949702A4E0B1E03B
:100190004D935C93A6E0B1E00D911C91A8E0B1E015
:1001A0004D915C910E949702A6E0B1E04D935C9363
:1001B00080E090E0ABE0B1E08D939C9380E0809391
:1001C000170188D17894D1302FD00C94E3002F936D
:1001D0002FB72F933F93CF93DF931F920F92F894F3
:1001E000939570917A00706470937A0000907A0011
:1001F00004FCFCCFABE0B1E00D911C91A8E7B0E0AE
:100200004D915C91040F151FABE0B1E00D931C9371
:100210009031D1E078940F901F90DF91CF913F9172
:100220002F912FBF2F911895ABE0B1E00D911C914C
:1002300040E150E00E94B702ABE0B1E04D935C9327
:10024000ABE0B1E00D911C91A8E0B1E04D915C9163
:100250000E94B702ABE0B1E04D935C9380910B013B
:1002600080930A0120910A018091040180930A0180
:1002700030910A01231B00905F0002FC95C0809121
:100280000B0180930A0120910A018091060180935D
:100290000A0130910A01321B00905F0002FC8BC002
:1002A000ABE0B1E00D911C91A4E0B1E04D915C9107
:1002B000041B150BABE0B1E00D931C93ABE0B1E078
:1002C0000D911C9144E650E00E94B702AFE0B1E00E
:1002D0004D935C93AFE0B1E00D911C9144E650E08A
:1002E0000E94EC02A5E1B1E00D931C93ABE0B1E0FC
:1002F0000D911C91A5E1B1E04D915C91041B150B92
:10030000ABE0B1E00D931C93ABE0B1E00D911C911B
:100310004AE050E00E94B702A1E1B1E04D935C9346
:10032000A1E1B1E00D911C914AE050E00E94EC0285
:10033000A5E1B1E00D931C93ABE0B1E00D911C91F0
:10034000A5E1B1E04D915C91041B150BABE0B1E070
:100350000D931C93ABE0B1E08D919C91A3E1B1E0D2
:100360008D939C93A0911301B0911101C0910F0145
:10037000C093C60041D0B093C6003ED0B093C60033
:100380003BD0A8EAB0E1EBE0F1E00E9404030E9458
:10039000D1020E94D902992780E090E0ABE0B1E061
:1003A0008D939C93D0E0089580E090E0ABE0B1E0C5
:1003B0008D939C9383CF84E690E0ABE0B1E08D9386
:1003C0009C937CCFAF93BF93CF932F932FB72F9353
:1003D0003F93CF93DF931F920F92F89417D07894A6
:1003E0000F901F90DF91CF913F912F912FBF2F91B1
:1003F000CF91BF91AF9118950090C00005FEFCCF42
:1004000008950090C80005FEFCCF08953091CE00FD
:1004100020911701213049F0313800905F0001FE32
:10042000089521E0209317010895323A00905F006B
:1004300001FE089520E0209317015C9A22EC20939E
:10044000CE00DFDF25E52093CE00DBDF21E4209323
:10045000CE00D7DF2DE32093CE00D3DFD2DFC05D07
:10046000C093CE00CEDFB05DB093CE00CADFA05DFA
:10047000A093CE00C6DF2DE62093CE00C2DF2DE68E
:100480002093CE0021E82093CE00BBDF5C98C09380
:100490000F01B0931101A0931301A8EAB0E1EFE0BE
:1004A000F1E00E940C030E94D102A8EAB0E1E1E170
:1004B000F1E00E940C030E94D102A8EAB0E1E3E15E
:1004C000F1E00E940C030E94D1020E94D90208951B
:1004D0005C98189500E00093C5000093CD0007E0FC
:1004E0000093C40007E00093CC0008E10093C10032
:1004F0000093C90006E00093C2000093CA005C9814
:10050000549A7091C10070687093C1007091C900D5
:1005100070687093C9007091C90070647093C900CD
:10052000089509D00E94EC0200FC10D0089503D079
:100530001ED001F8F9CF0024E89457FF02C009D07B
:10054000689400F80BD010F80124089502D009D067
:100550000895509540954F5F5F4F0895E89417FFB9
:100560000895009510950F5F1F4F68940895352FDB
:10057000242FE894452B11F468940895512F402FAF
:100580000027112780E1440F551F001F111F021B78
:10059000130B416018F4020F131F4E7F8A9599F7D1
:1005A0000895A8EAB0E18D91882311F005D0FBCF22
:1005B00008958DE001D08AE00090C00005FEFCCFD8
:1005C0008093C60008953197F1F70895689462F812
:1005D0000895E89462F808950F92B801469F80014B
:1005E000479F100D569F100D0F900895000F111F7B
:1005F000221F331F089500951095209530950F5FA9
:100600001F4F2F4F3F4F0895019110810EC0019150
:100610001191219130810BC00191108117FF05C00C
:100620003FEF2FEF04C0008111272227332737FF28
:1006300003C0E1DF8DE28D93CF93DF93CF92DF9202
:10064000EF92AA24BB24CC24DD24EE2440E2CAE0AD
:10065000DD2755E093E38881890F87FD9F7083FD37
:10066000907F891B89935A95A9F7C0DFAA1CBB1CF0
:10067000CC1CDD1CEE1C4A9551F7E894EFE0FF27F7
:1006800082910ED0EB30E0F71EF068948A2D0CD0EA
:1006900088278D93EF90DF90CF90DF91CF910895D1
:1006A000982F829501D0892F8F70805D26F080333E
:0A06B00009F4089568948D930895ED
:00000001FF
