:100000000C943E001895000018950000189500000B
:10001000189500001895000018950000189500002C
:10002000189500001895000018950000189500001C
:10003000189500001895000018950000189500000C
:1000400018950000189500001895000018950000FC
:1000500018950000189500001895000018950000EC
:1000600018950000189500001895000018950000DC
:100070000C946B00189500000C94AC008FEF8DBFB2
:10008000C8EDE0EC4E2E80E18EBFD0E1F0E15F2EB6
:10009000A89584B7082E877F84BF88E1992780932D
:1000A000600090936000EEEFFFE0A0E0B1E08827F1
:1000B0008D933197E9F7662480E080930301559A88
:1000C0004DD0789426E42093C60084EF91E00E94FE
:1000D000E6000C9462002F932FB72F933F93CF939A
:1000E000DF931F920F92F8940AD078940F901F908C
:1000F000DF91CF913F912F912FBF2F911895309184
:10010000CE0020910301213049F0313800905F008A
:1001100001FE089521E0209303010895323A0090F2
:100120005F0001FE089520E0209303015C9A22EC19
:100130002093CE0020E30090C80005FEFCCF209362
:10014000CE0023952A33B9F70090C80005FEFCCFF6
:1001500021E82093CE0008955C98189500E0009364
:10016000C5000093CD0007E00093C40007E00093B2
:10017000CC0008E10093C1000093C90006E00093A1
:10018000C2000093CA005C98549A7091C1007068D4
:100190007093C1007091C90070687093C90070912C
:1001A000C90070647093C90008955D9B02C05D9999
:1001B00002C05D9A01C05D9808953197F1F70895E6
:1001C000689462F80895E89462F80895EF93FF93B5
:1001D000EE27E82BE92B31F0E6E6FEE03197F1F768
:0A01E0000197D1F7FF91EF91089508
:00000001FF
