:100000000C943E001895000018950000189500000B
:10001000189500001895000018950000189500002C
:10002000189500001895000018950000189500001C
:10003000189500001895000018950000189500000C
:1000400018950000189500001895000018950000FC
:1000500018950000189500001895000018950000EC
:1000600018950000189500001895000018950000DC
:100070000C949500189500000C94D6008FEF8DBF5E
:10008000C8EDE0EC4E2E80E18EBFD0E1F0E15F2EB6
:10009000A89584B7082E877F84BF88E1992780932D
:1000A000600090936000EEEFFFE0A0E0B1E08827F1
:1000B0008D933197E9F787E08093C40080E08093C7
:1000C000C50088E18093C100662487E880937A00A8
:1000D00080E480937C0080E08093020181E0809343
:1000E000030180E080930601559A62D07894709164
:1000F0007A00706470937A0000907A0004FCFCCF60
:100100008CED95E00E9429017AD0E6E4F3E00E94AC
:100110000F01A8EAB0E1E8E7F0E00E944A010E947E
:1001200007010E9416010C9477002F932FB72F938D
:100130003F93CF93DF931F920F92F8940AD0789455
:100140000F901F90DF91CF913F912F912FBF2F9153
:1001500018953091CE0020910601213049F03138B8
:1001600000905F0001FE089521E0209306010895AC
:10017000323A00905F0001FE089520E020930601CE
:100180005C9A22EC2093CE0028E20090C80005FE85
:10019000FCCF2093CE0023952837B9F70090C800F4
:1001A00005FEFCCF21E82093CE0008955C981895B9
:1001B00000E00093C5000093CD0007E00093C40069
:1001C00007E00093CC0008E10093C1000093C90050
:1001D00006E00093C2000093CA005C98549A7091A4
:1001E000C10070687093C1007091C900706870930D
:1001F000C9007091C90070647093C90008955D9B37
:1002000002C05D9902C05D9A01C05D980895A8EA98
:10021000B0E18D91882311F00CD0FBCF08950E949E
:100220003801802D11F005D0FACF08958DE001D06E
:100230008AE00090C00005FEFCCF8093C6000895C0
:100240003197F1F70895689462F80895E89462F898
:100250000895EF93FF93EE27E82BE92B31F0E6E6C4
:10026000FEE03197F1F70197D1F7FF91EF910895F3
:10027000C895319600200895000F111F221F331FCB
:10028000089500951095209530950F5F1F4F2F4FC3
:100290003F4F0895019110810EC00191119121915C
:1002A00030810BC00191108117FF05C03FEF2FEF88
:1002B00004C0008111272227332737FF03C0E1DF65
:1002C0008DE28D93CF93DF93CF92DF92EF92AA24AA
:1002D000BB24CC24DD24EE2440E2CAE0DD2755E037
:1002E00093E38881890F87FD9F7083FD907F891B31
:1002F00089935A95A9F7C0DFAA1CBB1CCC1CDD1C36
:10030000EE1C4A9551F7E894EFE0FF2782910ED05A
:10031000EB30E0F71EF068948A2D0CD088278D937F
:10032000EF90DF90CF90DF91CF910895982F829535
:1003300001D0892F8F70805D26F0803309F40895F5
:0C03400068948D9308954144433A2000D6
:00000001FF
