:100000000C943E001895000018950000189500000B
:10001000189500001895000018950000189500002C
:10002000189500001895000018950000189500001C
:10003000189500000C947D0218950000189500009A
:1000400018950000189500001895000018950000FC
:1000500018950000189500001895000018950000EC
:1000600018950000189500001895000018950000DC
:100070000C94E002189500000C9474038FEF8DBF70
:10008000C8EDE0EC4E2E80E18EBFD0E1F0E15F2EB6
:10009000A89584B7082E877F84BF88E1992780932D
:1000A000600090936000EEEFFFE0A0E0B1E08827F1
:1000B0008D933197E9F787E08093C40080E08093C7
:1000C000C50088E18093C100662487E880937A00A8
:1000D00080E480937C0080E0809380008BE08093BC
:1000E000810080918100887F8093810080E090E092
:1000F000909385008093840080E498E39093890036
:100100008093880070916F00726070936F008BE035
:1001100080938100E0E0F0E0A0E1B1E091E00E9496
:100120008506E8E1FDE00E94CE05E0E1F1E0D08047
:10013000EE24FF2400270E9493040E943B05EDE07B
:10014000F0E0A4E0B1E00E946506E1E0F0E0A0E1AB
:10015000B1E091E00E948506E0E1F1E0D080EE247C
:10016000FF2400270E9493040E94CA04E4E0F1E007
:100170000E946F040E947C05EDE0F0E0A4E0B1E095
:100180000E946506E2E0F0E0A0E1B1E091E00E94AB
:100190008506E8E1FDE00E94CE05E0E1F1E0D080D7
:1001A000EE24FF2400270E9493040E943B05EDE00B
:1001B000F0E0A8E0B1E00E946506E3E0F0E0A0E135
:1001C000B1E091E00E948506E0E1F1E0D080EE240C
:1001D000FF2400270E9493040E94CA04E8E0F1E093
:1001E0000E946F040E947C05EDE0F0E0A8E0B1E021
:1001F0000E946506E4E0F0E0A0E1B1E091E00E9439
:100200008506A0E1B1E00C9111272227332744E6AF
:1002100050E060E070E00E940E04A0E0B1E00D93B9
:100220001D932D933D93E5E0F0E0A0E1B1E091E076
:100230000E948506A0E0B1E00D911D912D913C91A9
:10024000A0E1B1E04C915527662777270E94F90578
:10025000A0E0B1E00D931D932D933D93E4E0F1E018
:100260000E947404E8E0F1E00E946F040E946D05B2
:10027000EDE0F0E0ACE0B1E00E94650600E010E0E7
:1002800020E030E0A1E1B1E00D931D932D933C936C
:10029000A5E1B1E0ECE1FDE00E94F10580E0809392
:1002A000230130D27894A13000905F0001FC02D08D
:1002B0000C945301E5E1F1E00E946F04E8E0F1E005
:1002C0000E9474040E94D70518F011F00C946A0182
:1002D0000C94780181E08093190180E080931A01E9
:1002E00080E080931B0180E080931C010C945502F8
:1002F00080E080931901E4E0F1E00E947404E5E1FC
:10030000F1E00E946F040E946D05EDE0F0E0A5E1D0
:10031000B1E00E946506E0E2FDE00E94CE05E5E165
:10032000F1E00E946F040E943B05EDE0F0E0A5E1E2
:10033000B1E00E946506ECE0F1E00E947404E5E1A2
:10034000F1E00E946F040E94E504EDE0F0E0A5E119
:10035000B1E00E946506E0E2FDE00E94CE05E5E125
:10036000F1E00E946F040E94E504EDE0F0E00E94DD
:100370003104ADE1B1E0DD92EC9280911D018093FA
:100380001901A9E1B1E00D91112748EE53E00E9457
:100390000404ADE1B1E00D931C93EDE1F1E0D190E7
:1003A000E080FF2400270E9493040E94CA04E5E134
:1003B000F1E00E946F040E946D05EDE0F0E0A5E120
:1003C000B1E00E946506E8E1FDE00E94CE05E5E1AE
:1003D000F1E00E946F040E94E504EDE0F0E00E946D
:1003E0003104ADE1B1E0DD92EC9280911D0180938A
:1003F0001A01AAE1B1E00D91112744E650E00E94F4
:100400000404ADE1B1E00D931C93EDE1F1E0D19076
:10041000E080FF2400270E9493040E94CA04E5E1C3
:10042000F1E00E946F040E946D05EDE0F0E0A5E1AF
:10043000B1E00E946506E4E2FDE00E94CE05E5E140
:10044000F1E00E946F040E94E504EDE0F0E00E94FC
:100450003104ABE1B1E0DC92ABE1B1E00D911127E9
:100460004AE050E00E940404ADE1B1E00D931C931A
:10047000EDE1F1E0D190E080FF2400270E94930499
:100480000E94CA04E5E1F1E00E946F040E946D053C
:10049000EDE0F0E0A5E1B1E00E946506E5E1F1E004
:1004A0000E943104ACE1B1E0DC92A0E0A5E1B1E052
:1004B000ECE1FDE00E94F105EEE1F0E0ACE1B1E03D
:1004C00091E07BE70E947406EFE1F0E0ABE1B1E080
:1004D00091E07BE70E947406E0E2F0E0AAE1B1E07F
:1004E00091E07BE70E947406E1E2F0E0A9E1B1E06F
:1004F00091E07BE70E94740608952F932FB72F9306
:100500003F93CF93DF931F920F92F894939570913E
:100510007A00706470937A0000907A0004FCFCCF3B
:10052000A8E7B0E00D911C9140E150E00E94CF039C
:10053000ADE1B1E04D935C93A1E1B1E00D911D916E
:100540002D913C91ADE1B1E04D915C91662777270B
:100550000E94F905A1E1B1E00D931D932D933D9308
:10056000903100905F0001FC0AD078940F901F90AA
:10057000DF91CF913F912F912FBF2F911895A8EA2E
:10058000B0E1E1E1F1E00E940F060E94E9030E9460
:10059000F103E1E1F1E00E946F040E949304A5E100
:1005A000B1E00E94C50400E010E020E030E0A1E1ED
:1005B000B1E00D931D932D933C93A1E090E008953D
:1005C0002F932FB72F933F93CF93DF931F920F92C9
:1005D0009F93AF93F89411D07894AF919F910F901F
:1005E0001F90DF91CF913F912F912FBF2F911895A1
:1005F0000090C80005FEFCCF08953091CE002091F8
:100600002301213049F0313C00905F0001FE089544
:1006100021E0209323010895323A00905F0001FE0B
:10062000089520E0209323015C9A22EC2093CE00D1
:10063000DFDF25E52093CE00DBDF21E42093CE0031
:10064000D7DF2DE32093CE00E1E2F0E0A9E1B1E0B5
:1006500091E00E948506CCDF30911901305D303386
:1006600000905F0001FC30E23093CE00E0E2F0E069
:10067000AAE1B1E091E00E948506BADF20911A015B
:10068000205D303200905F0001FC36D02093CE0018
:10069000EFE1F0E0ABE1B1E091E00E948506A8DF78
:1006A00030911B01305D203200905F0001FC1ED0B4
:1006B0005C9A3093CE00EEE1F0E0ACE1B1E091E085
:1006C0000E94850695DF20911C01205D2093CE00BD
:1006D0008FDF2DE62093CE008BDF2093CE0021E824
:1006E0002093CE0085DF08955C98189530330090F4
:1006F0005F0001FC30E20895203300905F0001FCB0
:1007000020E2089500E00093C5000093CD0007E0CB
:100710000093C40007E00093CC0008E10093C100FF
:100720000093C90006E00093C2000093CA005C98E1
:10073000549A7091C10070687093C1007091C900A3
:1007400070687093C9007091C90070647093C9009B
:10075000089509D00E94040400FC10D0089503D02D
:100760001ED001F8F9CF0024E89457FF02C009D049
:10077000689400F80BD010F80124089502D009D035
:100780000895509540954F5F5F4F0895E89417FF87
:100790000895009510950F5F1F4F68940895352FA9
:1007A000242FE894452B11F468940895512F402F7D
:1007B0000027112780E1440F551F001F111F021B46
:1007C000130B416018F4020F131F4E7F8A9599F79F
:1007D0000895A8EAB0E18D91882311F005D0FBCFF0
:1007E00008958DE001D08AE00090C00005FEFCCFA6
:1007F0008093C60008953197F1F70895689462F8E0
:100800000895E89462F808950F92B801469F800118
:10081000479F100D569F100D0F9008950F921F9235
:100820002F92C801D901489F80014A9F90014B9F98
:10083000202C499F100D211D321D5A9F202C589F9E
:10084000100D211D321D599F200D311D689F200D57
:10085000311D699F300D789F300D2F901F900F90A4
:1008600008953DD0992711278F2D880F80E8F82A09
:10087000802F881F08F41FEF41F08F57082F07FDC6
:1008800004C0003240F08FEF01C08827982FD82E87
:10089000E82EF82E09C08FE1801B082FF694E7940C
:1008A000D79497950A95D1F7112351F09095D0944C
:1008B000E094F09481E0980F8827D81EE81EF81E77
:1008C0000F2DFE2CED2CD92E0895D094E094F094A9
:1008D00091E0D90E9927E91EF91E10950895D1903F
:1008E000E190F190019108952191319141915191BF
:1008F0000895102F90E8FF0C001F0927990FF79417
:100900001078652F90E8440F551F5927990F479588
:10091000607800380895FF0C90E89027110F9795A4
:10092000F794092F0895102FBD2CDE2CEF2CF02EFC
:1009300011234AF4B094D094E094F0949FEFB91A44
:10094000D90AE90AF90A0EE1FF2039F4FE2CED2C50
:10095000DB2CBB240850C2F76CC032F00A95BB0CEC
:10096000DD1CEE1CFF1CF9CF0E94B704D4CFB7FEEC
:10097000089590E8B91611F4D0FE08959FEFD91AA2
:10098000E90AF90A09F403950895DD92ED92FD92C2
:100990000C930895502F2D2D3E2D4F2D612F08952E
:1009A0002DEC3CEC4CEC5DE366270FC098DFF2DFEA
:1009B000DD24EE2490E8F92E0FE307C095DF05C093
:1009C0002227332740E251E46627552351F10023C3
:1009D00081F18FDF71F11627005850580894050BEC
:1009E00018F407FD03C025C007FD23C046953795C1
:1009F0002795F694E794D79422D0FF202AF0DD0CB7
:100A0000EE1CFF1C015073F09D2D969548F0DD20E3
:100A10003AF4EE202AF491E0D90E9927E91EF91E46
:100A20007ACF07C09FE7092FF92A9FEFD92EE92E29
:100A30000895DD24EE24FF240027112708959F92B6
:100A40009924AA24BB2488E1D216E306F40628F0F0
:100A5000D21AE30AF40A089401C08894991CAA1CCB
:100A6000BB1CDD0CEE1CFF1C8A9571F7D92CEA2CFF
:100A7000FB2C9F9008953DDFE1F25038D1F216270C
:100A8000005850580894051F12F418F4CBCF08F002
:100A9000D0CF0BD0FF202AF0BB0CDD1CEE1CFF1CBE
:100AA0003ACF0F5F0BF4BECF36CF9F929924AA2482
:100AB000BB24992788E1990CAA1CBB1CDD1CEE1CE9
:100AC000FF1C30F4920EA31EB41ED91EE91EF91E9F
:100AD0008A9589F79F90089507DF0BDF503829F03A
:100AE00090E869270CC00AF045D015CF5FE32227B4
:100AF0003327442701C0F8DEFCDE5038B1F300385C
:100B000099F3902F951B8BF312F434D0FACF9831D0
:100B100018F0222733274427983028F0232F342F2A
:100B200044279850F9CF992329F046953795279572
:100B30009A95D9F7912F962742F014D0B0F6F794F2
:100B4000E794D7940F5F8BF66DCF10D051F008F477
:100B5000BCDEFF2052F2DD0CEE1CFF1C0150CBF777
:100B600061CF67CFD20EE31EF41E0895D21AE30AB6
:100B7000F40A0895DF92EF92FF920F931F93D22E03
:100B8000E32EF42E052F162F6F915F914F913F9119
:100B90002F910895C895319600200895FBDF202DF0
:100BA000F9DF302DF7DF402DF5DF502D089507FBDD
:100BB00000680EF40F7757FB50680EF45F7707FD5F
:100BC00002C057FF05C0D216E306F40605070895D4
:100BD0002D153E054F055007089591E005C092E0A0
:100BE00003C094E001C098E0D5DF0D929A95E1F73B
:100BF0000895040F151F261F371F0895000F111F9A
:100C0000221F331F089500951095209530950F5F92
:100C10001F4F2F4F3F4F0895019110810EC001913A
:100C20001191219130810BC00191108117FF05C0F6
:100C30003FEF2FEF04C0008111272227332737FF12
:100C400003C0E1DF8DE28D93CF93DF93CF92DF92EC
:100C5000EF92AA24BB24CC24DD24EE2440E2CAE097
:100C6000DD2755E093E38881890F87FD9F7083FD21
:100C7000907F891B89935A95A9F7C0DFAA1CBB1CDA
:100C8000CC1CDD1CEE1C4A9551F7E894EFE0FF27E1
:100C900082910ED0EB30E0F71EF068948A2D0CD0D4
:100CA00088278D93EF90DF90CF90DF91CF910895BB
:100CB000982F829501D0892F8F70805D26F0803328
:100CC00009F4089568948D93089594E081918D932B
:100CD0009A95E1F70895F999FECFE1BDF2BD3196FD
:100CE000089591E001C092E07B3751F47FB7F8940A
:100CF000F2DF8D9180BDFA9AF99A9A95C9F77FBF74
:100D00007727089591E001C092E0E5DFF89A80B579
:100D10008D939A95D1F708950000C8420000000015
:080D200000007A4400002041AC
:00000001FF
