:100000000C943E001895000018950000189500000B
:10001000189500001895000018950000189500002C
:10002000189500001895000018950000189500001C
:10003000189500000C9455021895000018950000C2
:1000400018950000189500001895000018950000FC
:1000500018950000189500001895000018950000EC
:1000600018950000189500001895000018950000DC
:100070000C94B002189500000C9444038FEF8DBFD0
:10008000C8EDE0EC4E2E80E18EBFD0E1F0E15F2EB6
:10009000A89584B7082E877F84BF88E1992780932D
:1000A000600090936000EEEFFFE0A0E0B1E08827F1
:1000B0008D933197E9F787E08093C40080E08093C7
:1000C000C50088E18093C100662487E880937A00A8
:1000D00080E480937C0080E0809380008BE08093BC
:1000E000810080918100887F8093810080E090E092
:1000F000909385008093840080E498E39093890036
:100100008093880070916F00726070936F008BE035
:1001100080938100E0E0F0E0A0E1B1E091E00E9496
:100120009C04A0E1B1E00C9111272227332744E67B
:1001300050E060E070E00E94E503A4E0B1E00D93C0
:100140001D932D933D93E1E0F0E0A0E1B1E091E05B
:100150000E949C04A4E0B1E00D911D912D913C9171
:10016000A0E1B1E04C915527662777270E940C0447
:10017000A4E0B1E00D931D932D933D93E2E0F0E0F8
:10018000A0E1B1E091E00E949C04A0E1B1E00C91FB
:1001900011272227332744E650E060E070E00E94F8
:1001A000E503A8E0B1E00D931D932D933D93E3E0AB
:1001B000F0E0A0E1B1E091E00E949C04A8E0B1E091
:1001C0000D911D912D913C91A0E1B1E04C915527ED
:1001D000662777270E940C04A8E0B1E00D931D93D9
:1001E0002D933D93E4E0F0E0A0E1B1E091E00E94C6
:1001F0009C04A0E1B1E00C9111272227332744E6AB
:1002000050E060E070E00E94E503A0E0B1E00D93F3
:100210001D932D933D93E5E0F0E0A0E1B1E091E086
:100220000E949C04A0E0B1E00D911D912D913C91A4
:10023000A0E1B1E04C915527662777270E940C0476
:10024000A0E0B1E00D931D932D933D9300E010E0ED
:1002500020E030E0A1E1B1E00D931D932D933C939C
:1002600000E010E020E030E0A5E1B1E00D931D9347
:100270002D933C9380E080931F0114D27894A13099
:1002800000905F0001FC02D00C943F01E6E6F9E02B
:100290000E94C103A8EAB0E1E5E1F1E00E942C046C
:1002A0000E94B903EEE6F9E00E94C103A8EAB0E1BA
:1002B000E8E0F1E00E942C040E94B9030E94C80308
:1002C000A8E0B1E04D915D916D917C91A5E1B1E027
:1002D0000D911D912D913C910E9416041CF011F07E
:1002E0000C9474010C94820181E08093190180E0E8
:1002F00080931A0180E080931B0180E080931C01B1
:100300000C94030280E080931901A5E1B1E00D9106
:100310001D912D913C91A4E0B1E04D915D916D91C5
:100320007C910E941104A5E1B1E00D931D932D93E2
:100330003D93E4E7F9E00E94C103A8EAB0E1E5E1FA
:10034000F1E00E942C040E94B9030E94C803A5E1B9
:10035000B1E00D911C9144E650E00E949F03ADE195
:10036000B1E04D935C9380911D0180931A01AAE145
:10037000B1E00D91112744E650E00E94DB03ADE1AE
:10038000B1E00D931C93A5E1B1E00D911D912D916C
:100390003C91ADE1B1E04D915C91662777270E94D9
:1003A0001104A5E1B1E00D931D932D933D930091B0
:1003B00015014AE00E94A304ABE1B1E00C93ABE16C
:1003C000B1E00D9111274AE050E00E94DB03ADE15E
:1003D000B1E00D931C93A5E1B1E00D911D912D911C
:1003E0003C91ADE1B1E04D915C91662777270E9489
:1003F0001104A5E1B1E00D931D932D933D938091E0
:10040000150180931C01A0E000E010E020E030E046
:10041000A5E1B1E00D931D932D933C93E0E8F9E045
:100420000E94C103A8EAB0E1E9E1F1E00E943804CA
:100430000E94B903A8EAB0E1EAE1F1E00E943804C1
:100440000E94B903A8EAB0E1EBE1F1E00E943804B0
:100450000E94B903A8EAB0E1ECE1F1E00E9438049F
:100460000E94B9030E94C803EEE1F0E0ACE1B1E004
:1004700091E07BE70E948B04EFE1F0E0ABE1B1E0BB
:1004800091E07BE70E948B04E0E2F0E0AAE1B1E0BA
:1004900091E07BE70E948B04E1E2F0E0A9E1B1E0AA
:1004A00091E07BE70E948B0408952F932FB72F9341
:1004B0003F93CF93DF931F920F92F894939570918F
:1004C0007A00706470937A0000907A0004FCFCCF8C
:1004D000A8E7B0E00D911C9140E150E00E949F031D
:1004E000ADE1B1E04D935C93A1E1B1E00D911D91BF
:1004F0002D913C91ADE1B1E04D915C91662777275C
:100500000E940C04A1E1B1E00D931D932D933D9346
:10051000903100905F0001FC0AD078940F901F90FA
:10052000DF91CF913F912F912FBF2F911895A1E18E
:10053000B1E00D911D912D913C91A5E1B1E00D939C
:100540001D932D933C9300E010E020E030E0A1E10A
:10055000B1E00D931D932D933C93A1E090E008959D
:100560002F932FB72F933F93CF93DF931F920F9229
:100570009F93AF93F89411D07894AF919F910F907F
:100580001F90DF91CF913F912F912FBF2F91189501
:100590000090C80005FEFCCF08953091CE00209158
:1005A0001F01213049F0313C00905F0001FE0895A9
:1005B00021E020931F010895323A00905F0001FE70
:1005C000089520E020931F015C9A22EC2093CE0036
:1005D000DFDF25E52093CE00DBDF21E42093CE0092
:1005E000D7DF2DE32093CE00E1E2F0E0A9E1B1E016
:1005F00091E00E949C04CCDF30911901305D3033D2
:1006000000905F0001FC30E23093CE00E0E2F0E0C9
:10061000AAE1B1E091E00E949C04BADF20911A01A6
:10062000205D303200905F0001FC36D02093CE0078
:10063000EFE1F0E0ABE1B1E091E00E949C04A8DFC3
:1006400030911B01305D203200905F0001FC1ED014
:100650005C9A3093CE00EEE1F0E0ACE1B1E091E0E5
:100660000E949C0495DF20911C01205D2093CE0008
:100670008FDF2DE62093CE008BDF2093CE0021E884
:100680002093CE0085DF08955C9818953033009054
:100690005F0001FC30E20895203300905F0001FC10
:1006A00020E2089500E00093C5000093CD0007E02C
:1006B0000093C40007E00093CC0008E10093C10060
:1006C0000093C90006E00093C2000093CA005C9842
:1006D000549A7091C10070687093C1007091C90004
:1006E00070687093C9007091C90070647093C900FC
:1006F000089509D00E94DB0300FC10D0089503D0B8
:100700001ED001F8F9CF0024E89457FF02C009D0A9
:10071000689400F80BD010F80124089502D009D095
:100720000895509540954F5F5F4F0895E89417FFE7
:100730000895009510950F5F1F4F68940895352F09
:10074000242FE894452B11F468940895512F402FDD
:100750000027112780E1440F551F001F111F021BA6
:10076000130B416018F4020F131F4E7F8A9599F7FF
:100770000895A8EAB0E18D91882311F00CD0FBCF49
:1007800008950E940804802D11F005D0FACF089535
:100790008DE001D08AE00090C00005FEFCCF809380
:1007A000C60008953197F1F70895689462F80895A6
:1007B000E89462F808950F92B801469F8001479F20
:1007C000100D569F100D0F9008950F921F922F92AB
:1007D000C801D901489F80014A9F90014B9F202C5E
:1007E000499F100D211D321D5A9F202C589F100D1E
:1007F000211D321D599F200D311D689F200D311D77
:10080000699F300D789F300D2F901F900F900895A5
:10081000C895319600200895040F151F261F371F15
:100820000895041B150B260B370B089504171507A5
:10083000260737070895000F111F221F331F089541
:1008400000951095209530950F5F1F4F2F4F3F4F0C
:100850000895019110810EC0019111912191308173
:100860000BC00191108117FF05C03FEF2FEF04C0AF
:10087000008111272227332737FF03C0E1DF8DE2F4
:100880008D93CF93DF93CF92DF92EF92AA24BB2474
:10089000CC24DD24EE2440E2CAE0DD2755E093E3DA
:1008A0008881890F87FD9F7083FD907F891B8993C5
:1008B0005A95A9F7C0DFAA1CBB1CCC1CDD1CEE1C82
:1008C0004A9551F7E894EFE0FF2782910ED0EB3084
:1008D000E0F71EF068948A2D0CD088278D93EF9056
:1008E000DF90CF90DF91CF910895982F829501D01E
:1008F000892F8F70805D26F0803309F40895689405
:100900008D930895F999FECFE1BDF2BD319608951A
:1009100091E001C092E07B3751F47FB7F894F2DFA9
:100920008D9180BDFA9AF99A9A95C9F77FBF77277A
:10093000089591E001C092E0E5DFF89A80B58D93CB
:100940009A95D1F70895FF93881BF9E0001FFA9557
:1009500011F4FF910895881F841B18F4840F889464
:10096000F5CF0894F3CF57796E696B3A200057683A
:100970003A20000020506F20772D776C3A2000003D
:10098000706F206F626C69637A656E696163683A43
:02099000200045
:00000001FF
