:100000000C943E001895000018950000189500000B
:10001000189500001895000018950000189500002C
:10002000189500001895000018950000189500001C
:10003000189500000C949400189500001895000085
:1000400018950000189500001895000018950000FC
:1000500018950000189500001895000018950000EC
:1000600018950000189500001895000018950000DC
:100070000C94F300189500000C94B8018FEF8DBF1D
:10008000C8EDE0EC4E2E80E18EBFD0E1F0E15F2EB6
:10009000A89584B7082E877F84BF88E1992780932D
:1000A000600090936000EEEFFFE0A0E0B1E08827F1
:1000B0008D933197E9F78FE58093C40080E08093BA
:1000C000C50088E18093C100662487E880937A00A8
:1000D00080E480937C0080E0809380008BE08093BC
:1000E000810080918100887F8093810080E090E092
:1000F00090938500809384008FE398E39093890028
:100100008093880070916F00726070936F008BE035
:100110008093810080E0809305012CD155276627CC
:10012000EE2778940C9492002F932FB72F933F9340
:10013000CF93DF931F920F92E39570917A007064D2
:1001400070937A0000907A0004FCFCCF2091780034
:10015000520F00905F0000FC6F5F20917900620FEA
:10016000E03100905F0001FC0AD078940F901F905E
:10017000DF91CF913F912F912FBF2F9118952CD0C8
:100180002BD02AD029D050930001A8EAB0E1E0E0BA
:10019000F1E00E9424020E94E1010E94F0016093BC
:1001A0000001A8EAB0E1E0E0F1E00E9424020E9430
:1001B000E1010E94F0012AEF529F512D629F612DB3
:1001C000500D00905F0000FC6F5F8827862F752F11
:1001D000E0E060E050E008955695669500905F007D
:1001E00000FC505808952F932FB72F933F93CF9330
:1001F000DF931F920F92EF936F935F93F8940DD05C
:1002000078945F916F91EF910F901F90DF91CF9154
:100210003F912F912FBF2F9118953091CE002091B3
:100220000501213049F0313C00905F0001FE089546
:1002300021E0209305010895323A00905F0001FE0D
:10024000089520E02093050180930001ECEDF4E097
:100250000E94E901A8EAB0E1E0E0F1E00E94240296
:100260000E94E1010E94F00170930001E6EEF4E0CB
:100270000E94E901A8EAB0E1E0E0F1E00E94240276
:100280000E94E1010E94F0015C9A22EC2093CE00D2
:1002900025E52093CE0023D042D021E45FD02093E7
:1002A000CE002DE35BD02093CE00905DA05DB05DCD
:1002B000C05D54D09093CE0051D0A093CE004ED0CC
:1002C000B093CE004BD0C093CE0048D021E820930D
:1002D000CE0090E0A0E0B0E0C9E040D008957456B0
:1002E00000905F0000FC08C0A1E0745600905F0021
:1002F00000FC02C0A2E074567C5903D0765F08D09F
:1003000008957A5000905F0000FC0895B395F9DFDE
:10031000715000905F0000FC0895C395F9DF80FDE7
:100320000FD081FD11D030E02C2F12D0B30F30E070
:100330002B2F0ED0A30F30E02A2F0AD0930F089551
:10034000AE5FBB5FCA5F0895AB5FBF5FCE5F0895CE
:100350002A5000905F0000FE71E008950090C800F0
:1003600005FEFCCF08950090C00005FEFCCF089567
:100370005C98189500E00093C5000093CD0007E05D
:100380000093C40007E00093CC0008E10093C10093
:100390000093C90006E00093C2000093CA005C9875
:1003A000549A7091C10070687093C1007091C90037
:1003B00070687093C9007091C90070647093C9002F
:1003C0000895A8EAB0E18D91882311F00CD0FBCFFD
:1003D00008950E940302802D11F005D0FACF0895F0
:1003E0008DE001D08AE00090C00005FEFCCF809334
:1003F000C60008953197F1F70895689462F808955A
:10040000E89462F80895C895319600200895000F89
:10041000111F221F331F08950095109520953095C8
:100420000F5F1F4F2F4F3F4F0895019110810EC056
:1004300001911191219130810BC00191108117FF21
:1004400005C03FEF2FEF04C000811127222733277B
:1004500037FF03C0E1DF8DE28D93CF93DF93CF921F
:10046000DF92EF92AA24BB24CC24DD24EE2440E2C8
:10047000CAE0DD2755E093E38881890F87FD9F70EF
:1004800083FD907F891B89935A95A9F7C0DFAA1C29
:10049000BB1CCC1CDD1CEE1C4A9551F7E894EFE028
:1004A000FF2782910ED0EB30E0F71EF068948A2D82
:1004B0000CD088278D93EF90DF90CF90DF91CF9174
:1004C0000895982F829501D0892F8F70805D26F036
:1004D000803309F4089568948D93089557594249DB
:1004E0004B20483A2000575942494B204C3A2000B3
:00000001FF
